:020000041000EA
:1000000000B5324B212058609868022188439860DF
:10001000D860186158612E4B002199600221596106
:100020000121F02299502B49196001219960352056
:1000300000F044F80222904214D00621196600F024
:1000400034F8196E01211966002018661A6600F04E
:100050002CF8196E196E196E052000F02FF8012189
:100060000842F9D1002199601B49196000215960AB
:100070001A491B48016001219960EB211966A021F2
:10008000196600F012F800219960164914480160C1
:100090000121996001BC002800D000471248134993
:1000A000086003C880F30888084703B5996A0420EC
:1000B0000142FBD001200142F8D103BD02B5186610
:1000C0001866FFF7F2FF186E186E02BD00000240BE
:1000D000000000180000070000035F00212200005C
:1000E000F4000018222000A00001001008ED00E03C
:1000F00000000000000000000000000074B24E7A12
:1001000000200420F7010010CB010010CD010010E9
:10011000C9010010C9010010C9010010C901001077
:10012000C9010010C9010010C9010010CF01001061
:10013000C9010010C9010010D1010010D301001045
:10014000C1010010C1010010C1010010C101001067
:10015000C1010010C1010010C1010010C101001057
:10016000C1010010C1010010C1010010C101001047
:10017000C1010010C1010010C1010010C101001037
:10018000C1010010C1010010C1010010C101001027
:10019000C1010010C1010010C1010010C101001017
:1001A000C1010010C1010010C1010010C101001007
:1001B000C1010010C1010010C1010010C1010010F7
:1001C000EFF30580103800BE00BE00BE00BE00BECA
:1001D00000BE00BEF2EB8871E0150410001604109A
:1001E0003802001090A31AE700201E49086006C8D4
:1001F00081F3088810471C480068002801D00020BF
:10020000F3E70DA40ECC002902D000F012F8F9E7B4
:100210001649174A002000E001C19142FCD115495E
:100220008847154988471549884700BEFDE701C939
:1002300001C29A42FBD3704700160410C000002090
:10024000180C002058210410000004200000042095
:1002500058210410001004200010042000000000A9
:100260007047000008ED00E0000000D0180C0020EE
:10027000F81E0220853B0010810200107D3B00101B
:1002800010B504F0E3FE00280ED10121002004F097
:10029000CDFEFA2001F090F80021002004F0C6FE07
:1002A000FA2001F089F8F0E701F01CFB094A83000D
:1002B0009A1810B514684022544080322240064CEF
:1002C000C000A44663441A60044B9C4660444160ED
:1002D00010BDC04604C0014004D0014000400140B0
:1002E000074B8000C3181B68C90092000A435A409C
:1002F0000C231340034A9446604403607047C04691
:1003000004C0014004D001408000002905D0064B04
:100310009C460223604403607047044B9C460223C2
:1003200060440360F8E7C04604E0014004F0014087
:10033000D0231B061B6830B55C000500E418C30819
:1003400007202840800081401800094D3C302401DE
:1003500080009B0041511B19002A04D0054A944695
:100360006344196030BD044A944663441960F9E758
:10037000004001400061014000710140D0231B0694
:100380001B6870B5064D9B005C59204205D10443A3
:100390000D205C5100F060F970BD01F0A3FAC04679
:1003A000681D002010B504000D2000F041FAD02394
:1003B0001B061B6802499B005A58A2435A5010BDA5
:1003C000681D00200123D0228340120693629361AE
:1003D000094A83009A1811684022514080320A402D
:1003E0000649C0008C4663441A60054B9C460523B1
:1003F000604443607047C04604C0014004D00140DF
:10040000004001400FB400B5084883B003F01AFD66
:10041000049B002B07D005A91800019103F074FB81
:10042000034803F00FFD012003F086FB289900101C
:10043000AC9A0010EFF3108072B6034A1368002BD9
:10044000FCD0BFF35F8F70472C0100D0BFF35F8FEC
:100450000022024B1A6080F3108870472C0100D0F4
:1004600070B5EFF3108C72B60D4D2B68002BFCD0DD
:10047000BFF35F8F0724CB08C618C05C01230C4074
:10048000A3401C000440034207D118433070BFF35F
:100490005F8F2C608CF3108870BD1000FFF7B2FFE7
:1004A0002C0100D0F8B54746CE46884680B5EFF31C
:1004B000108C72B6214D2C68002CFCD0BFF35F8FDE
:1004C0009A422CD8D4080727055D06190124174045
:1004D000BC402C421FD007210127894609E0D408DF
:1004E000055D06194C4639001440A1400C00294214
:1004F00011D001329342F2D201204042BFF35F8F0C
:1005000000220E4B1A608CF3108800280FDBC0BC51
:10051000B946B046F8BD254310003570EEE7BFF38D
:100520005F8F00232B608CF31088012040424346EC
:10053000002BECD00898FFF765FFC0462C0100D0D7
:1005400030B5EFF3108C72B60A4C2368002BFCD048
:10055000BFF35F8F072301220B409A40CD08435D14
:1005600093434355BFF35F8F002323608CF31088C0
:1005700030BDC0462C0100D0044A1078431CDBB2C9
:10058000172B00D9102313707047C046F8050020C0
:100590000021044B044ABFF35F8F02C39342FAD198
:1005A0007047C046000100D0800100D0054B064ACC
:1005B0001360064A136053609360D3601361536104
:1005C000936170478080808000E400E004E400E0F4
:1005D0001F2318401E3B8340002905D0C021044A38
:1005E0004900535013607047802201498B50FAE74D
:1005F00000E100E001238340014A13607047C046D8
:1006000000E200E010B5EFF3108C72B60F4A1368E9
:10061000002BFCD0BFF35F8F0D4B10309B68800028
:100620001B580C4A934201D099420CD1084B9B684D
:100630001950BFF35F8FBFF35F8F0022034B1A6027
:100640008CF3108810BD01F04DF9C046240100D094
:1006500000ED00E0C1010010F0B557464E46DE4601
:100660004546E0B58A4685B00600EFF3108972B6BC
:1006700063490B68002BFCD0BFF35F8F0021614BF7
:1006800059568C46002900DAB7E049000D005E4C4F
:100690006544AD0067190291B979103619705B4B4A
:1006A000B1009B6801915B58191B472935D801217E
:1006B00018008843C679964200D875E09B46029B95
:1006C000019E9846039507E04D006D18AD00651931
:1006D000EB7993424ED92800062141560029F3DADE
:1006E00045465B4601960295061D494D0396039EBD
:1006F000043FBF1B3F05474E7F0D3743664687804B
:1007000086710298604480002418E2715246424883
:10071000A5802060A171A26018E040498B4200D002
:100720006BE03F4B3B4963533E4B0235043B65193D
:100730005B1B1B055B0D0B437B803B4BFA71BB8046
:10074000FF23BB715346BB6001233B432F4A0199F2
:1007500092685350BFF35F8FBFF35F8F0022284B27
:100760001A6089F3108805B0F0BCBB46B246A946B2
:10077000A046F0BD01964646029686885B46760501
:10078000B346061D039D03965E463615B346061D09
:10079000B046C3445E4604356519751BE0262D0539
:1007A0006D0D36023543A2E7204BFA719C460300DB
:1007B00066461B1B5B415E43360DB446AE1CB0461D
:1007C000A0444646164B6353164B0435043B9B1B13
:1007D0001B05104E5B0D33437B806319C31A043B2A
:1007E0001B055B0D3343BB806346BB715346BB6047
:1007F000094B03603B000B43A8E701F073F8C046C8
:10080000240100D0F51E0220FC05002000ED00E0D0
:1008100001BD000000E0FFFF01488047C10100105A
:1008200000A1FFFF4406002001BDFFFFAAAA0000AF
:10083000F0B5DE4657464E464546E0B583B0EFF389
:10084000108C72B6634A1368002BFCD0BFF35F8F25
:10085000614B624C9A68030010339D005259A146C7
:10086000A2423DD08A424ED05D4C161B472E37D84F
:100870000127BA4687405B4EB04636683E401F2788
:10088000B3465646384086404746802001963E5043
:10089000BFF35F8FEFF305808046002835D0834299
:1008A00000D094E01000534698438668B14208D1C6
:1008B0007BE07B00DB199B00E3189E68B14236D0D9
:1008C00018000627C757002FF3DAB14259D05B460C
:1008D000002B27D0C021434B019849005850186085
:1008E0003D4B9B685A51BFF35F8FBFF35F8F002270
:1008F000384B1A608CF3108803B0F0BCBB46B2468C
:10090000A946A046F0BD2200EAE7100053469843EE
:100910008668B142D5D1062686570300002E0ADA32
:100920004A4636E080232F490198C850D8E706266A
:100930009E57002E26DB7100881980002718B846C4
:10094000BF689F604746FF79DF714746BF797FB236
:100950009F71002F27DB4746BF887F053F15B846AC
:10096000E0278044E01A40440005400D3F02384330
:1009700098808B191C499B000878E31898710E70B9
:10098000A5E703004146002914D1FF3181711749C1
:10099000818015480178997115491B1B5B415943AA
:1009A000090D017093E71348E2E706268657030016
:1009B000002EC0DA10491148C91A08394C02640DDA
:1009C000204398800E4849080143D9807FE700F012
:1009D00089FFC046240100D000ED00E0C1010010F5
:1009E000FC05002000E100E0F51E022001BDFFFF34
:1009F000AAAA000001BD00004E06002000F0FFFF83
:100A000000F8FFFF10B58308040003202040FF24F6
:100A1000054AC0009446844081409B0063441A68A4
:100A2000A2430A431A6010BD00E400E070B501243F
:100A30000443EFF30581EFF3108C72B6274A136875
:100A4000002BFCD0BFF35F8F254A0500254BAD1A64
:100A50006D416B431B0D244D8900AE685BB2765827
:100A6000A64224D006215156994224D01221515633
:100A700099422AD01E215156994228D02A215156F6
:100A8000994226D036215156994224D042215156BE
:100A90000524994210D0154A117813708171BFF363
:100AA0005F8F00220D4B1A608CF3108870BDAA680E
:100AB0000F4C5450EFE700246100091989005218C7
:100AC000FF2191710B499180E5E70124F4E70224AD
:100AD000F2E70324F0E70424EEE7C046240100D047
:100AE000FC050020AAAA000000ED00E0F51E02208F
:100AF000C101001001BDFFFF1F2110B5091A0248F6
:100B0000FFF71EFD10BDC046F61E022010B5084BB3
:100B1000084C82B001000093002205232000FFF75B
:100B2000C1FC002801DB1F23181A02B010BDC0460B
:100B300038990010F61E022070B504000E00150052
:100B4000FFF71AFD0100200000F006F8A680E580FE
:100B5000BFF35F8F70BDC046024B9C466144890065
:100B60000160704740000034F8B5124C124DAC42A1
:100B700012D20126002776422368002B0DD0FFF702
:100B8000FBFC01002000FFF7E7FF66602772BFF360
:100B90005F8F0C34AC42EFD3F8BDFFF7EDFC0100E2
:100BA0002000FFF7D9FF6660BFF35F8F0834AC42C7
:100BB000E2D3F1E7080C0020180C002010B5040067
:100BC000FFF7DAFC01002000FFF7C6FF01235B42BC
:100BD000636000232372BFF35F8F10BDF0B5DE4664
:100BE00057464E464546E0B583B0EFF305820323F2
:100BF0001340B54A990052580091904601229A40FC
:100C00009346B24B1A60B24B01935B46B1484363C3
:100C1000434608229B5E9946002B3ADA43469B885E
:100C20001BB2002B00DB9DE043469B79002B00D0DC
:100C3000E1E0434608241C5F002C20DB43465A6950
:100C400063001B19DB00D3189D68DC686B1C00D1A6
:100C500003E1A048009984466144826A0B69AE1A98
:100C60009B1A9E4213D35A46036A1A420FD09948E0
:100C700000F070FC8C4202DCC7D18542C5D940BF70
:100C800003B0F0BCBB46B246A946A046F0BD0D611C
:100C9000EDE7424652695B0092464B44DB009A44C2
:100CA00053469E68DF6800F055FC8F42B6DC00D1E9
:100CB000F8E0002F00DAD9E05246534654691B6928
:100CC000019A934200D1CCE0414652460820085E8A
:100CD0005288000421001043984704000D002300AF
:100CE0002B4300D1C2E0002D00DBDFE030003900F3
:100CF000001BA94153469860D96000229A5E002AE1
:100D000000DA8BE743465D6953009C18E4002C1918
:100D1000A768E4688C4200DD80E702D1874200D9F1
:100D20007CE74646328108360DE08C4200D1C6E0B1
:100D30001E000023F25E002A0ADB53009C18E40028
:100D40002C19A768E4689B18DB00EB188C42ECDDDB
:100D500053461A804B46338043469B881BB2002B78
:100D600000DA61E743461A69EFF3108172B613683F
:100D7000002BFCD0BFF35F8F43469E880123424681
:100D80005B42938036B21369BFF35F8F00221A6013
:100D900081F31088002E00DA46E743465D69083388
:100DA00042469C467700BF19FF00EF19BB686046BA
:100DB00098460823D15E9246FC68002907DA0EE0C7
:100DC000A24246D018000023C15E002906DB4B007A
:100DD0005B18DB00EB18DA68A242F1DD52460680B0
:100DE0000023FE5E3980002EDCDA904643469B7974
:100DF000002B00D11DE7002342469371434646462F
:100E00000821595E08364B1C00D138E74746894611
:100E1000556902E006004B1C18D04B005B18DB0044
:100E2000E8180A008C46E95E43881BB2002BF1DA11
:100E300001235B42DC178360C4604A4503D03180E4
:100E40003B8903803A81E1464B1CE6D1B8464C46CB
:100E5000F2E69A684245B5D9C0E7631C00D0F8E6CF
:100E600005E7200023699847002825D153464246CC
:100E70001B8813811269EFF3108372B61168002981
:100E8000FCD0BFF35F8F4246514652880A804246EB
:100E9000494651801269BFF35F8F0021116083F3CF
:100EA0001088BBE6864200D803E7B7E6094800F0A1
:100EB00051FB001969411DE7656824680FE7874207
:100EC00000D835E744E7C046C01A00203C70054012
:100ED000DD0B001000400540074810B50268EFF335
:100EE000108172B61368002BFCD0BFF35F8F03F044
:100EF00081FA0020002110BD7C1E002070B52E4C10
:100F00002569002D04D00A212C48FFF725FE70BD6D
:100F10002B4E0321300000F0FBFAE660FFF72CFBBC
:100F2000284B03229C46D02322701B061B680121FC
:100F30006370254B6044A3600F2380002061022072
:100F4000638063694942A180198002311986473163
:100F50001D83585218315A5275325C3999521832E1
:100F60000131995218320131995218320131995296
:100F7000083518329D520231183299521832013117
:100F8000995218320131995218320131995218325E
:100F9000013199521832013199520C4B0C49DC60E5
:100FA00001303562FFF72EFB01210320FFF710FB14
:100FB000084B1D60A7E7C046680600207C1E002085
:100FC0000040054040000034FFFF1000C01A002020
:100FD000DD0B0010386005400048704768060020AF
:100FE000F8B5050018200F0001F094F9041E45D053
:100FF0001821380001F0ACF9606100283BD00121D4
:10100000280000F097FAE5600600FFF7B5FAD02255
:101010002670120612681A4B62709C460122BBB2FF
:1010200052426044800063819B1820612281A2802B
:101030006380002F0BD079006269C919C900114B78
:1010400089181380013318329BB28A42F9D10127E3
:10105000B7400D4BB20030000C492F62D450FFF75F
:10106000D1FA01213000FFF7B3FA094B9C466544E1
:101070002F602000F8BD200001F08CF90024F8E773
:1010800040000034FFFF0000C01A0020DD0B0010FC
:1010900038200000124B70B5040098421ED0012386
:1010A0000578C668AB400F4A3362B218136001215D
:1010B0002800FFF78DFA28000B49FFF7B9FB29003C
:1010C000300000F02FFA00212278084B606992006E
:1010D000D15001F05FF9200001F05CF970BDC0460D
:1010E0006806002038300000DD0B0010C01A002018
:1010F000F8B51F0008AB1B7804001600002B08D1C0
:1011000000F030FA32003B00121A8B41002B00DA5B
:1011100053E02269EFF3108072B61368002BFCD005
:10112000BFF35F8F0223E15E63694A005218D20069
:101130009B18002937DB1A8862802269BFF35F8F12
:101140000025156080F31088069A9E60DF601A61A2
:10115000079A5A615A8801325204520C101C002A14
:101160001FD082B25880080410432669EFF310871D
:1011700072B63268002AFCD0BFF35F8FA2881A8053
:10118000A1802369BFF35F8F00221A6087F3108864
:101190000B4923788C4601329A40E36863441A6015
:1011A000F8BD0120DDE72369BFF35F8F00221A60DD
:1011B00080F3108801204042F2E70020F0E7C046AB
:1011C0003C20000070B501000469EFF3108C72B68A
:1011D00020680028FCD0BFF35F8F02200D5E4C69B1
:1011E00068004019C0002418002D37DB2088488093
:1011F0000869BFF35F8F002606608CF31088E360F8
:1012000063880498013320615B0405985B0CA2603D
:1012100060611A1C002B1FD093B22804628018430F
:101220000A69EFF3108C72B61368002BFCD0BFF381
:101230005F8F8B8823808D800B69BFF35F8F0022C7
:101240001A608CF310880B7801329A40CB680849F9
:101250008C4663441A6070BD0122DDE70B69BFF361
:101260005F8F00221A608CF3108801204042F2E761
:101270003C20000010B543890A1493421ADD530044
:101280009B184269DB00D3180469EFF3108C72B627
:101290002268002AFCD0BFF35F8F5A88090494B2F9
:1012A000090C8A4208D00369BFF35F8F00221A60DD
:1012B0008CF31088002010BD8022120214435C8041
:1012C000012302698371BFF35F8F002111608CF3EA
:1012D0001088044902788C469340C2680120624419
:1012E0001360E8E73C20000040787047F0B54746BF
:1012F000CE46040080B50D0096267642F7173619C3
:101300006F4183B08F4215D812D000F02BF9320014
:101310003B00121A8B41002B16DC002B40D0200022
:10132000290000F029F903B0C0BCB946B046F0BDB1
:101330008642EAD90026002700F014F932003B006B
:10134000121A8B41002BE8DD00F00CF932003B0053
:10135000121A8B41002B0ADB00230193124B32003F
:10136000009312483B00FFF72DFF0028D7DBB8465B
:10137000B1460F4F0F4E7B6A984504D8BA6A914523
:10138000CDD99845CBD13268EFF3108172B613688E
:10139000002BFCD0BFF35F8F300002F0F7FFEAE7CD
:1013A000002ABCD0D0E7C046D90E00106806002045
:1013B000004005407C1E002070B5060000F0D2F809
:1013C000FA2204000D00002330000021920000F0FA
:1013D00053FF8023001969411B06994202D3012063
:1013E00002494042FFF782FF70BDC046FFFFFF7F0A
:1013F000F0B5D6464F464646C0B504000D0082B053
:10140000EFF305830F00002B31D13B4B98461B684F
:10141000834227D0394B9946DB689A464B46504663
:101420001E7800F097F80B00514602000436B60013
:1014300071582000891A8C4629000026801A99418B
:101440008E4224DC21D020BF2D4A536ABB422AD3CE
:10145000926A0120A24213D302B0E0BCBA46B14660
:10146000A846F0BD43465B688B42D3D1EBE72449E5
:1014700000204B6AAB42EFD38A6A0130A242EBD222
:101480005B1B5A1E9341D8B2E6E78445DBD900F0D6
:1014900069F822002B00121A8B41002B05DA184A3A
:1014A000536ABB42D4D20020D6E700230193154BE8
:1014B0002200009348462B00FFF784FE011EEEDD5C
:1014C00043461C605D600E4B5A6ABA4211D39B6A58
:1014D000A3420CD34846FFF7CDFE094A0020536AC9
:1014E000BB42B9D3926A0130A242B5D2C8E7BA4230
:1014F000F0D120BFEEE7C04660060020680600205D
:1015000000400540D90E00100048704700400540DB
:1015100010B5024A0248FEF7A3FF10BD549900100F
:101520009811002010B50248FFF70AF810BDC04618
:101530009811002000B5054B83B0009300220323CF
:101540000348FEF7AFFF03B000BDC0467899001016
:10155000981100200300416A0A00986A596A8A4279
:10156000FAD17047034B596A0A00986A596A914246
:10157000FAD1704700400540064A536A9942FCD8A8
:1015800007D1044B02E05A6A914202D19A6A824220
:10159000F9D3704700400540F8B5DE464E46574641
:1015A0004546E0B58B4605000A991800160000F084
:1015B000F1FA0A9B6C001F02324B64199C46A4008E
:1015C0006444636881469F4200D967602B1FDBB289
:1015D0009846012B30D9C02380229B01E3181201C9
:1015E0001A60294BAD0059599A4600291BD1730145
:1015F000E026226853401E40802342465B01E318E8
:101600001E60012A30D9802380229B01E318120139
:101610001A6053464A4667605A51F0BCBB46B24610
:10162000A946A046F8BD586900F0B4FA013043005D
:101630001B18033BFDD2DAE75B46012BCBD1C0235D
:1016400003229B01E3181A60023AA3681A42FCD0F5
:101650007301E0262268AD0053401E4080230A4AF1
:101660005B019246E3181E605A46216851400322EE
:101670000A401A6001225B469A40A3681A42FCD0D5
:10168000C1E7C04600800040A0110020F0B54646EA
:101690004F46D646C0B51F00344B44009C46241824
:1016A000A4006444636888461600FF2B02D8802398
:1016B0005B006360031FDBB29A46012B30D9C02365
:1016C00080229B01E31812011A60294B85005959A9
:1016D000994600291BD17301E026226853401E4021
:1016E000802352465B01E3181E60012A30D9802313
:1016F00080229B01E31812011A6080235B00636063
:101700004B465F51E0BCBA46B146A846F0BD5869A9
:1017100000F040FA013043001B18033BFDD2DAE72A
:101720004346012BCBD1C02303229B01E3181A604F
:10173000023AA3681A42FCD07301E02622688500B1
:1017400053401E4080230A4A5B019146E3181E6005
:1017500042462168514003220A401A600123424652
:101760009340A2681342FCD0C1E7C046008000400D
:10177000A0110020014B8000C0587047A01100202C
:10178000F8B5040021481E0017000D0000F002FA11
:101790000100380000F0FEF9069B36041B031E43CF
:1017A0002368002B20DB1A4B1A49E3185A1E934179
:1017B0008022920194465B421B0B174A1B03634431
:1017C0001360164A13601F000A689743FBD1144B3D
:1017D0002560E2182123A06013602368002BFCDA47
:1017E0000823E6601360F8BD3F2322681340AB4234
:1017F000D9D1A3681B051B0D8342D4D1EE22E36827
:10180000D2021340B342CED1EDE7C046001BB70071
:101810000040FDBF08C0004000E0004000F0004074
:10182000043000008023024A9B000B43D3627047C0
:1018300000800540142310B50100188804331B886C
:10184000984710BD162310B50100188802331B8875
:10185000984710BDF8B54746CE4680B50F1E19D043
:1018600014239946043304000025012698464B466C
:101870001888434621681B88984701C4431E984135
:10188000013540420640AF42F1D13000C0BCB946FC
:10189000B046F8BD0126F8E7142370B50400188897
:1018A00004330D001B8803499847290003002000DA
:1018B0009847C04655420000AA23064A1B01136000
:1018C0008D235B00D3600449044B19605368002BDF
:1018D000FCDA70470040024000B0FA0000600240AD
:1018E0007047C04610B50148FEF78CFD8C9900107A
:1018F00070B5074D074EB54209D20024013E761B54
:10190000B60808CD984723000134B342F9D170BD21
:10191000E098001020990010054B064A06491A600D
:10192000064A074B1A6010000B689843FBD17047BA
:1019300000E00040BFCDFBFE08C00040FE7F3C0041
:1019400000F00040044BDB6C002B03D18022034BE2
:10195000D2021A607047C046000011504C2011504E
:10196000044A054B1A60054A1368DB018033FBD13A
:101970007047C046FFFFFF0100F0004008C0004074
:101980004022034B9A675A671A67DA667047C04667
:1019900000F0014010B5FEF7FBFD10BDF8B527497A
:1019A000274C284D641AA4082200302C00D930227C
:1019B0002800920000F00CFD2F2C3BD830202F2166
:1019C000A700EB195B07204A001BDB0F091B052949
:1019D00016D92600002B01D0EA51661CC01AE31864
:1019E0009B004108EB18C900C9181A605A600833F7
:1019F0008B42FAD1012303421CD098438419A700DB
:101A0000EA51631C2F2C15D09B00EA50A31C2E2CEE
:101A100010D09B00EA50E31C2D2C0BD09B00EA5009
:101A2000231D2C2C06D09B00EA50631D2B2C01D0CB
:101A30009B00EA50054B9D60F8BDC04600010010B8
:101A4000C001001000000020C101001000ED00E006
:101A5000002310B5294C82B0A367FFF72DFF0122A8
:101A6000274B1A60636C012BFCD10322254B1A60B3
:101A7000224A936B012BFCD1013300930121224AAE
:101A800022480433FFF77CFE052301210093204AFE
:101A90002048FFF775FE0022022104201E4BFFF7AD
:101AA000F5FD0022012105201C4BFFF7EFFD002270
:101AB000002107201A4BFFF7E9FD00220021082032
:101AC000174BFFF7E3FD8023DB000093002200218A
:101AD0000920134BFFF760FD0022104B0021062068
:101AE000FFF7D4FD0420FFF745FE0E4900F052F841
:101AF00001000020FFF796FE02B010BD00800040FC
:101B00003CB0004030B00040002F685900800240D7
:101B1000008C864700C00240001BB7004059730785
:101B2000006CDC0240420F0001480421014B1847C1
:101B30008006002055180010014B9B6818470000D4
:101B400080060020124A936F9B0815D29066D166DA
:101B5000002905D0FFE7FFE7FFE7516F106F7047DF
:101B600004B580210906C2175140002800D0C8439F
:101B700007F07EFE002104BDF0B5146E556E576F60
:101B8000166FFFF7E3FF1466556657671667F0BDDB
:101B9000000000D0114A936F9B0813D21066516663
:101BA000002905D0FFE7FFE7FFE7516F106F70478F
:101BB00004B5002801D00020C04307F059FE0021E1
:101BC00004BDC046F0B5146E556E576F166FFFF723
:101BD000E5FF1466556657671667F0BD000000D034
:101BE00094464A4A926F9208624601D228E0C04663
:101BF000F0B5464E346E756E776F366F00F020F894
:101C00009446424A14665566576716676246F0BDA9
:101C100094463E4A926F9208624601D254E0C04612
:101C2000F0B53A4E346E756E776F366F00F04CF843
:101C30009446364A14665566576716676246F0BD85
:101C4000002B24DB11D000293EDA00B5C943404205
:101C500000D1013100F038F8C943404200D10131D0
:101C6000DB43524200D1013300BD002AEBD10028F2
:101C700001D1002905D00020C90FC90701D1C043F7
:101C8000410800B507F00CFE0022002300BD00B59E
:101C900000290ADBDB43524200D1013300F014F883
:101CA000C943404200D1013100BDC943404200D187
:101CB0000131DB43524200D1013300F005F8DB4330
:101CC000524200D1013300BD002923D1002B18D18D
:101CD000002A0CD0BC460D4F38667A6600210023DE
:101CE000FFE7FFE7FFE77A6F386F67467047002826
:101CF00001D00748010000B507F0D2FD0022002303
:101D000000BD02000B00002000217047000000D041
:101D1000FFFFFFFF002B00D0BFE0130C28D1002AEB
:101D2000E7D080B4114F39667A66FFE7FFE730B439
:101D3000040C7B6F396F1B0423433B667A66FFE715
:101D4000FFE7FFE7C04684B27B6F3D6F1B04234370
:101D50003B667A66FFE7FFE7C04600232C042D0CA4
:101D60007A6F386F00196941B0BC7047000000D02D
:101D7000F0B594460025140E01D112020835140F57
:101D800001D112010435940F01D192000235D40F14
:101D900001D152000135D40B0134254F7C66254C0E
:101DA0003C660E0C93B2FFE7FFE7FFE73C6F66432C
:101DB000360C7703BE467343DF0B5B04C01AB94190
:101DC000130C7343DB18C91ACE086643360CB644AD
:101DD00093B273431F0F1B01C01AB941130C734315
:101DE0001F0B1B05C01AB941860D8F023E43664387
:101DF000360C092D24DB520A7243801A7703460AF7
:101E00006643360C16235B1BDE40DF40BF19644679
:101E10006643821B7046043506330100D940A84052
:101E2000C01900D30131A24206D20023F0BD000048
:101E3000000000D0FFFFFFFF121B0130F3D3F1E7DA
:101E400009277F1BFE406446A2B27243801A00D26B
:101E50000139220C7243130C1204821A99410B00AF
:101E60007046043513370100F940A840801900D3AB
:101E70000131002B02D1A2420AD2F0BD013000D3C1
:101E80000131121BFAD2013BF8D1A24200D2F0BDBF
:101E9000013000D30131121BF7E7F0B51C0C00D064
:101EA00080E00CB400251C0A04D11B02160E33433B
:101EB000120208351C0B04D11B01160F334312010B
:101EC00004359C0B04D19B00960F334392000235DE
:101ED000DC0B02D192185B4101351C00971864415C
:101EE0000134464F7C66464C3C660E0CFFE7FFE72C
:101EF000FFE7C0463C6F6643360C7703BE4697B299
:101F00007743C01B00D20139C01B00D201399FB2F8
:101F10007743C91BC91B170C77437E04FF0B801B3B
:101F2000B941CE086643360C0C2D33DBB644120B98
:101F30001F053A431B0B97B27743C01B00D20139F0
:101F40009FB27743C91B170C77433E043F0C801B9D
:101F5000B941860D8F023E43664329277F1BFE4011
:101F60000C3D7746AF40BF1930BCA2B2ABB2724352
:101F70007343801A9941220C7243130C1204801A85
:101F8000994102000B000137001BA941F9D2781ECC
:101F90000021F0BD0C277F1BFE4077467F0BAF4032
:101FA000FF19E0E700245D1C07D0144F7D663966F9
:101FB000FFE7FFE7FFE7FFE73C6F95B29EB265439F
:101FC0006643401BB141150C1E0C65436643360445
:101FD0002F0C3E432D04401BB141994204D2020014
:101FE0000B0020000021F0BD01D19042F7D3801AF0
:101FF000994101349942F2D3F6E70000000000D085
:10200000FFFFFFFF48404140484018B4134B5B6856
:10201000019308BD18B4114B1B68019308BD944689
:102020000F4A926F920805D2624618B40B4BDB68D8
:10203000019308BD0A4AF0B5146E556E576F166FBE
:102040006246FFF7F2FF064A146655665767166741
:10205000F0BD18B4014B9B68019308BDE80D00204A
:10206000000000D0FFB550404240504059404B4026
:10207000594000E0FFB5154F4C00640D03D0BC4241
:1020800004D10C0314D80020090D09055C00640D6F
:1020900003D0BC4204D11C030AD800221B0D1B052F
:1020A00001264B4009D44B4003D58B4200D18242DC
:1020B000FFBD9942FCD19042FFBD0B43DB180343A7
:1020C0001343F5D0C9434918FFBD0000FF070000C6
:1020D00000B5FFF7CFFF804100BDC04600B5FFF758
:1020E000C1FF01D9002000BD012000BD00B5FFF7F0
:1020F000B9FF804100BD012040054A00121804D8F4
:102100005A00121801D800207047012070470000C3
:102110000021002805D17047C1174840401AFAD065
:10212000C90713B5064B1B6898470CBC441CA2405A
:102130001005120B0349091B09051943114310BD72
:10214000781D00201F04000010B54C00620D802394
:10215000D218DB00D21A5B057E2A10DD9E3A13DA14
:10216000CC170903490819435242D1406400013495
:102170001532202A05DAD0400843604310BD002004
:1021800010BD0846604310BDC80FC018013810BD0F
:1021900018B4024B5B6A019308BD0000E80D0020F3
:1021A00010B50148FEF72EF998990010132370B569
:1021B0001D78012D19D014DD1D48FFF743FB0600E3
:1021C0001C48FFF73FFB1C4C80223100200000F030
:1021D000FFF8022D06D01948FFF72CFB184B1860AA
:1021E00070BD154C174BA364F5E7174B124C2360D9
:1021F0006360A360E36023616361A361E3612362C1
:102200006362A362E36223636363A363E3632364A0
:102210006364A364E36423656365A365E365236680
:102220006366A366E36623676367A367E367D9E72B
:102230005344000053460000E80D00204C330000DA
:10224000781D00204D220010A121001007B5604626
:1022500001880A0A0230DF2AFAD1C9B2820804D3FF
:10226000028840880004104300E00068014A505092
:10227000039007BDE80D002051434343C9188C4625
:10228000110C83B24B4310B4040C614392B280B280
:10229000504362431C041B0C001910BC5941130429
:1022A000120CC018514161447047000010B501483C
:1022B000FEF7A8F8AC9A0010132310B510481C784C
:1022C000FFF7C0FA0100012C0AD003DD80220D487F
:1022D00000F07EF80C48FFF7ADFA0C4B186010BD0B
:1022E000084C5422200000F073F822000849803284
:1022F0002368002B00D1216004349442F8D1E9E72F
:10230000534600007C1D00204C330000781D002047
:10231000AD22001070B504000A4E300007F078FAC4
:10232000200007F009FA0500300007F0A9FA002D97
:1023300005D0054B2C199C4201D8280070BD0348DC
:10234000FEF760F8080C002000000420B09900108F
:10235000F8B506000C000C4F380007F059FA2100C0
:10236000300006F06BFD0500380007F089FA744371
:10237000002D05D0054B2C199C4201D82800F8BD32
:102380000348FEF73FF8C046080C00200000042078
:10239000B099001070B50400054D280007F038FA18
:1023A000200007F0D3F9280007F06AFA70BDC04694
:1023B000080C002001480421014B1847900600201A
:1023C00055180010014B1B681847000090060020AC
:1023D000014B5B6818470000900600207047C0461C
:1023E000F8B55746DE464E464546E0B599460A9B47
:1023F00007009A460D9B884693460B9C9B073BD152
:102400000C9B9C423DD21E1B0B9415000C005E449D
:102410002A004B46013521002020B847B542F7D1AC
:10242000A0460B9C002C20D0454636195346321B43
:10243000013C185D29004B46B847002CF6D12B0013
:10244000350098460D9B9B070FD55B46EC1A0C9BFD
:10245000A3420AD9464698462A004B46310020201E
:102460000134B84701354445F6D32800F0BCBB46DB
:10247000B246A946A046F8BD16001500002CD3D1DF
:10248000E0E71600002CCFD11500EEE7F0B54F467F
:102490004646D646C0B584B098460EAB1B789446E7
:1024A0009946129B0D9C109F119E9A0725D4002ED1
:1024B00065D1BC4221D201221A409246202C00D183
:1024C000E9E00C9A551E302202E0202C00D17BE07E
:1024D00001342A55A742F8D85246002A0DD0B442FA
:1024E0000BD20C9A551E3022202C02D171E0202CE8
:1024F0002DD001342A55B442F9D1DA063CD55A051B
:102500002ED4002C28D10F9A102A00D1B6E0022A2E
:1025100000D1BCE030220C9C227001244A46002AE3
:1025200065D15A0700D499E02B220C9D2A5501341D
:1025300003930C9B62460093029643460194FFF777
:102540004FFF04B0E0BCBA46B146A846F0BD202417
:10255000DA06EDD55A0503D4A74266D0B44264D05A
:102560000F9A102A71D0022A57D0202CE0D02200D6
:10257000013430250C9FBD54202CD9D0CEE7012248
:1025800015001D40AA461A4236D04A46002A4AD1B2
:102590000C321A4247D1BC42A1D2202C91D1202E1C
:1025A00017D82024DA06C3D55A051BD4202F01D012
:1025B000202ED5D11F220F9D102D6FD0022DD8D1E6
:1025C00062250C9FBD54D0E75246002A79D0202EB8
:1025D000BDD92024DA06ABD55A0503D4202FE9D083
:1025E000202EE7D00F9A102AA2D12024A0E72D2276
:1025F0000C9D2A5501349BE7BC4200D37DE7202C7B
:1026000000D05EE7DA06F0D55A05EED4202F62D06E
:10261000202EEAD134001F22CDE7202C00D187E7FD
:1026200022000134CCE7013EB5E7621E012CC2D185
:102630000F9A102A00D06AE79A063BD558220C9CC4
:102640002270283A6270022468E79A060ED4202C81
:10265000CBD078220C9D2A55013486E71A0700D486
:1026600066E720220C9D2A55013461E7202CBCD05E
:1026700058250C9A12191570013476E79A0608D578
:1026800058220C9C227030226270022446E760328D
:10269000F7E77822F5E7002A83D1B3E7A21E013CD1
:1026A0009D0603D478250C9FBD5460E758250C9FE8
:1026B000BD545CE778220C9C2270483A6270022478
:1026C0002CE7DA0600D433E75A058BD4202F00D04C
:1026D00044E71F226FE73C001F226CE710B500287B
:1026E00000D110BD01F062FBFBE7C0460B0010B546
:1026F000002802D049681B68984710BDF0B55746BE
:102700004E464546DE46E0B599B08246894690463B
:102710000893229A239B10001900FFF7ECFC002875
:1027200000D0CDE0229823990122D94B5242FFF7E5
:10273000DDFC002800D0C3E0229823990122D54B6C
:102740005242FFF7C5FC002800D0B9E02298239937
:1027500000220023FFF7BCFC002800D0F1E1229EFC
:10276000239F8023269ADB001A400D92269A1A4254
:1027700001D1062324938023269A1B011A403B0093
:1027800093460996334300D0B3E0002A00D0C2E15B
:10279000002300240A930B94002304250993259B0E
:1027A0000024AB4200D95C1B0223269A1A400C92EB
:1027B000269A134203D06B426B415B421C40099B3B
:1027C000002B07D00A9A0B9B30003900FFF727FC3B
:1027D00006000F002298239900220023FFF778FCBF
:1027E000002803D0802109067B181F00269AAA4BD7
:1027F000009601971340089E0493249B0394029330
:10280000424633004946504600F0AAF90400002D24
:1028100067D02020269A4946024013005A4253416D
:102820005B42621C18400A92330022004530D047B8
:10283000099A6F1ED317D4185C40D30F9B4600250E
:1028400001E0202D13D008AA94461F2320006344E2
:102850000A2101355E19FFF79DF9303131702000F2
:102860000A21FFF797F926000400092EE9D805236D
:102870000693002304930A3303935B46089E029356
:1028800010AB0A9A009349463300504605970195CC
:10289000FFF7FCFD0C9A0400002A22D04246851A5C
:1028A000259AAA421DD9B046574616002200434633
:1028B000494620200135B8470134AE42F6D810E031
:1028C000269B42460493259B49460393249B5046EE
:1028D0000293229B239C00930194089B00F040F9F3
:1028E0000400200019B0F0BCBB46B246A946A04681
:1028F000F0BD6A4B78009C46400D6044FFF70CFC2D
:10290000674A684BFFF7A5FB674A684BFFF782FBF6
:10291000674A3B031B0B1A4304000D000998110082
:10292000644B0022FFF771FB634A644BFFF791FB96
:1029300002000B0020002900FFF76CFBFFF704FCEE
:102940000990FFF7E9FB5E4A5E4B04000D00FFF7BC
:1029500080FB00225C4BFFF75DFBFFF7F5FB5B4A5A
:102960005B4B29000C902000FFF773FB04000C98D0
:102970000D00FFF7D1FB574A574BFFF76AFB0200E8
:102980000B0020002900FFF740FB04000D000200AF
:102990000B000A940B95FFF75CFB04000D000A98EE
:1029A0000B9902000B00FFF735FB00220E900F91F0
:1029B0004A4B20002900FFF732FB0022484BFFF76B
:1029C00029FB02000B0020002900FFF728FB002252
:1029D000444BFFF71FFB02000B0020002900FFF70C
:1029E0001EFB0A9A0B9B0D0080210400C9050020E4
:1029F000FFF70BFB02000B0020002900FFF70AFB8A
:102A000002000B000E980F99FFF709FB0022284BDC
:102A1000FFF700FB344B0C9C9C46644423050022CA
:102A2000FFF717FB04000D0002000B003000390017
:102A30000A940B95FFF74CFB00285DD123002A0078
:102A4000C625099963318D42AD4159466D42043521
:102A5000002900D1A3E6134363D030003900234A94
:102A6000234BFFF73BFB002807D000223000390042
:102A7000204BFFF72DFB002853D1249B002B00D1C6
:102A80008DE60D9B5A1E9341249AD31A249386E611
:102A9000FFFFEF7FFFFFEFFFFFF7FFFF01FCFFFFEF
:102AA000FB799F501344D33FB3C8608B288AC63F3D
:102AB0000000F03F0000F83F61436F63A787D23FFB
:102AC00071A379094F930A400000E03F1655B5BB4A
:102AD000B16B0240EF39FAFE422EE63F00002C4077
:102AE0000000244000001840FF0300002D431CEBB1
:102AF000E2361A3F80842E41099B0022013B099354
:102B00002000164B2900FFF78AFA0A000100030093
:102B10000A910B9294E7002300240A930B9400235C
:102B20000993249A099B9A4214DDD31A013B2493FA
:102B30008023269ADB001A4300230025269209935E
:102B40002DE6802212069446229B1E00239B63449E
:102B50001F0006E600232493EAE7C0460000244055
:102B6000F0B54546DE464E465746E0B595B08B4635
:102B7000904699461E9A1F9B0A9019001000209DAE
:102B8000FFF7B9FA002800D0B0E11E981F99012282
:102B9000C74B5242FFF79CFA002800D037E11E983D
:102BA0001F990122C34B5242FFF7A0FA002800D020
:102BB000A7E01E981F990022BF4BFFF797FA002845
:102BC00000D088E01E981F990022BC4BFFF780FAC6
:102BD000002800D07FE01E981F9900220023FFF7F5
:102BE00077FA002800D0FAE000230B938023229C80
:102BF000229ADB001C401A4200D102E1092D00D8C4
:102C00007CE106A98C462C00172200233021093CC8
:102C100062440133D154EF1A202B00D132E1A34298
:102C2000F7D10022A44B069207931E981F99FFF735
:102C30008BFA0500FFF770FA02000B001E981F992F
:102C4000FFF7E3F9069A079BFFF703FA089009914B
:102C5000FFF79EFA0600FFF75BFA02000B000898E8
:102C60000999FFF7D2F90022954B08900991FFF7D7
:102C70003DFA002800D1D2E001363000FFF748FAD3
:102C8000069A079BFFF72AFA002801D00026013593
:102C9000AA46002F00D098E02800FFF73DFA020076
:102CA0000B001E981F99FFF7B0F9854B0022060014
:102CB0000F00FFF70DFA0CAB9A46002845D1002211
:102CC000300039007E4BFFF711FA00283DD1EB07A9
:102CD0003BD5013539E0229B42460493219B59465E
:102CE00003930A981E9B1F9C0295009301944B46E8
:102CF000FFF704FD15B0F0BCBB46B246A946A0469E
:102D0000F0BD229B5B0767D403226E4B2299019290
:102D1000039121990291009342464B4659460A98E5
:102D2000FFF75EFBE6E706AA9446172328006344F4
:102D30000A2101341E19FEF705FF303128003170D9
:102D40000A21FEF7FFFE051E76D0202CEBD10323CF
:102D5000229A1340012B1DD1219B002B1AD00B9BD3
:102D6000002B00D0BBE0229A0C33134200D0B6E017
:102D7000219BA34200D887E006AB9C461722302354
:102D8000624404E02199013413558C4259D0202C1F
:102D9000F8D12024229B01940393219B0293534654
:102DA000B9E706AA944617230A2163443000013488
:102DB0001D19FEF7EFFE3031297030000A21013F66
:102DC000FEF7E8FE092E46D90600202CE9D155462B
:102DD0000CAB20249A46B8E704223B4B96E71E9A98
:102DE0001F9B00200021FFF710F901230B93802384
:102DF000229C229ADB001E901F911C401A4200D098
:102E0000FCE60022314B0627069207930DE7229B32
:102E10000393219B0293042301932D4B7BE7002214
:102E200008980999264BFFF753F9002800D02FE79F
:102E3000002E4FD101362BE70323229A1340012B9A
:102E400066D0202CA6D00B9B002B1FD02D235246E2
:102E5000135501349EE75546202CB9D030233A193A
:102E6000002F08D0172006A9013409180B55202C73
:102E7000AED09442F6D10CAB9A462E23524613554F
:102E8000013462E72024CCE6202C83D0229B5B0710
:102E900008D4229B1B0700D47CE7202352461355FD
:102EA000013477E72B2352461355013472E7C046AD
:102EB000FFFFEFFFFFFFEF7F65CDCD4165CDCDC1BA
:102EC0000000E03F089A0010009A001080842E4114
:102ED000109A0010F30700D4DAE60136D8E6219BF9
:102EE000013B2193A34200D946E7AAE7229B039323
:102EF000219B029303230193074B0CE7074BEA0046
:102F00009B185C681B682F000693079400248CE6CE
:102F1000219B002B95D022E70C9A0010E09F001017
:102F2000F0B55746DE464E464546E0B5A5B01F0013
:102F30002E9B91460D93CA4ACA4B82468B461A6015
:102F4000002900D129E2002338789846002800D1D2
:102F50002BE2C54B44460C93C44B55464E460E934C
:102F60000AE0631C9846220033005946A8474446AD
:102F70003878002800D187E001372528F1D10823CF
:102F80009A46043B9946023B9846013B00229C46E8
:102F90000B943878791C0300203BDBB2102B03D84C
:102FA0000C9C9B00E3589F460300303B0B9C0B920C
:102FB000092B3AD9002398462A2800D1DDE00023C6
:102FC0009A462E284BD00300683BDBB2122B1ED84A
:102FD0000E9A9B00D3589F4663460F001A43D8E7CA
:102FE00043460F001A43D4E74B460F001A43D0E77D
:102FF00010230F001A43CCE753460F001A43C8E7CB
:1030000080235B000B9A78781A430B9201310F00F2
:1030100067284FD82428A4D90300253BDBB2422BD4
:103020009FD893499B00CB589F46002398460B9B03
:1030300047469C4600E00131BB00DB195B001F18CE
:103040000878303F0300303B092BF4D963460B93DB
:103050000023B8469A460F0001312E28B3D18020B4
:103060000B9AC00002430B92302252429446787869
:103070000B0084446246092A00D8AAE12A2800D11C
:10308000B9E10F0001319EE7A046AA46B146C84506
:1030900003D301235B424B4498464B464246594674
:1030A0000020D047200025B0F0BCBB46B246A94660
:1030B000A046F0BD01006939C9B20F2900D950E717
:1030C00001238B409C466B4B994663464A4613400E
:1030D0000F9362464B461A4200D068E10A2956D047
:1030E000072900D03DE70D9B02CB9846002900D070
:1030F00092E10B9B10211A008A4310001131084302
:10310000814680201A00C0000240110003421CD1F9
:1031100014AB9C461F220F2362440D959C4615005C
:103120000F9B0B9402E0202B0CD0110064460C4046
:1031300020003730092C00D807380133E8540A0939
:103140000F29F0D80B9C0D9D0F934B460822069338
:103150005346059208320392002204930F9B029279
:1031600001931CAB22000093594633002800FFF75F
:103170008DF9434604000D93FAE60D9B04CB90466F
:10318000002A79DB78780D930F00013117E70D9B4A
:1031900002CB14930B789C4618005346002B00D1A9
:1031A00034E1002815D05346013B013399460D9474
:1031B0000B9C89444A460B00A14601E0934203D090
:1031C0005C780133002CF9D14A465B1A0D9C0B92B6
:1031D0000F938023DB0099460B9A13400D934B46C7
:1031E0001A4204D00F9B534501D953460F93022333
:1031F00099460B9A13400B934B46134200D1F5E1CD
:103200006346002B00D1D6E10D9B002B00D182E15B
:103210000B1BD14631009A463B00A1442E005F466D
:103220004D4622009B46894609E04B463900541C16
:10323000B0475346185D002800D192E12200954224
:10324000F3D14B465A46A946BB46350017001E002F
:103250004C460B9B002B00D0ADE1149B0D9387E6F1
:10326000212F0010BC1A0020409E0010849E0010E8
:10327000D09E0010419000000B9A283802430B9218
:1032800042465242787890460F000D93013196E6FF
:1032900078786C2800D15DE180230B9A5B001A439B
:1032A0000B920131B3E680239B00ABE67878682867
:1032B00000D148E180230B9A01311A430B92A6E614
:1032C000672800D1B2E0472800D11AE1452800D193
:1032D0001CE10B9A0721049242460D9B039207338F
:1032E00052468B43190002920CC9280000920193A8
:1032F0000D91220033005946FFF700FA040037E62B
:10330000462800D18DE00B9A0721049242460D9B7E
:103310000392073352468B43190002920CC92800CE
:10332000009201930D91220033005946FFF718FCDB
:1033300004001DE6631C98462200330059462520F0
:10334000A847444614E60D9B04330F93631C99462B
:103350000B9B9A0700D40AE10D9B2200187859466E
:103360003300A84743464444012B00D86FE1B046E0
:103370002E0025004C46B9465F46220043460134E4
:1033800039002020B047AC42F7D12C00BB463500B5
:103390004F4646460F9B0D93EAE5D64B38789A4642
:1033A00000239846002800D0D3E500246FE66F285C
:1033B00042D000D8FDE11023782800D19BE00B9A81
:1033C0009A430B920A239C46002314930A330F93CB
:1033D00038E057460B9AB900C919490001330F1854
:1033E0001878303F010030390929F4D9BA460B92D8
:1033F0001F00591CE7E50D9BB87804CB0237D14379
:10340000C9170A4092460D93791CDCE5002800D1CB
:10341000DFE602235B42C8E621200B9A0243914675
:1034200076E620230B9A1A430B926CE780230B9AC3
:103430001B011A430B924CE708239C46002314936C
:1034400008330F930B9880230200DB001A40110011
:103450000200184200D080E00C239A431000802321
:1034600002009B001A400B92184200D0F1E080232A
:1034700002005B001A4091460D9A043214921842E1
:1034800000D0C3E2430600D5D7E0030600D421E311
:103490000D9B1B880993002B00D02DE1103398431E
:1034A000002900D128E1002399464346059353465D
:1034B00004930F9B06900393002302934B460193C2
:1034C0001CAB22000093594633002800FEF7DEFFB4
:1034D0000400C2E6582809D0622800D0E3E20223A3
:1034E0009C460023149302330F93ABE720230B9ADF
:1034F0001A430B92103B9C460023149310330F93F6
:10350000A0E780230B9A1B011A430B9220230B9AEE
:103510001A430B92DDE60B1B9A460F9B99463B0024
:1035200037005E469B4622003B003100A8475346C9
:103530000134185D0028F6D14B460F935B46B34625
:103540003E001F0085E6C0230B9AB8781A430B9201
:10355000F91C5CE5C0239B00F6E70D239A4310009D
:103560007DE75B463500BB464E461F0071E643468D
:10357000012B66D9631E434432002E001D003B0020
:10358000A2465F4691469B4622004B4601343900D5
:103590002020B047AC42F7D15B463500BB464E46D3
:1035A000A14654461F000D9B4A46187859463300E1
:1035B0004444A847EEE60F9BA146984500D84CE648
:1035C0004444E41AB0462E0025004C46B9465F46F6
:1035D00022004346013439002020B047AC42F7D1E5
:1035E0002C00BB4635004F46464636E60F988045D0
:1035F00000D873E24346E218131A32002E001D0071
:103600003B0091465F469B460F9122004B4601349A
:1036100039002020B047AC42F7D15B46BB461F00C3
:1036200043460F9901330F930B7835009C464E4665
:103630006046002800D0E7E50FE60D9B1B78099354
:1036400029E70D9B2200187859463300A8474C46BD
:10365000A0E60D9AFA3BFF3B07329A4301339946A5
:1036600091444B460D931368526815921A4306D144
:103670001032904300220992002900D083E0612299
:10368000810600D54122D2B20A9214AA91460A9A22
:1036900000210A3A0B9242461792524618925A4615
:1036A000B24609911E001F31149B4944BB46169433
:1036B0001A950024674698468946159D19901B92D5
:1036C0000AE03032D2B24B4601341A55A8454CD0EC
:1036D000202C4CD006000D003A00002330002900B9
:1036E000FEF796FAD2B2092AEBD90B9B9C466244AC
:1036F000D2B2E8E7DD2300106123820600D5412322
:10370000DBB20A3B0B93434614A91F228C46159348
:1037100053466244B2460D9417974C468046A946DC
:103720001700099D0F9E169308E03033DBB2013479
:103730003B55B5420ED3202C0CD00500310028009B
:10374000FEF728FACBB20929EFD90B9A94466344C5
:10375000DBB2ECE7159B40469846169B4D46564615
:10376000A1469A460D9C179F9FE6B742B0D9179B7A
:1037700056469846189B5F469A461B9B09949B4663
:10378000169C19981A9D43460593534604930F9B24
:103790000690039300230293099B01931CAB220024
:1037A0000093594633002800FEF770FE0400FFF72F
:1037B000DFFB10230B9A9A430F92692800D091E106
:1037C0000B9980230A00DB001A4010000A001942FE
:1037D00003D0112118008A430F920F9A8023110001
:1037E0009B0019408C461A425BD1802311005B007C
:1037F000194089460D9904310B911A4200D0B2E06C
:1038000013005B0600D4EDE00D9B1B781A00D90F66
:103810000D91002B00D1A3E0100014AA944642465B
:103820001F23159252466344A846BA464D46149447
:10383000B14604001F00169201E0202D0FD0200099
:103840000A21FEF7A7F901357E19303131702000C9
:103850000A21FEF79FF926000400092EEDD8159BDA
:103860004E46A94645469846169B57469A46149C8E
:103870000F9B069343460593534604930A230393F1
:103880000D9B02934B4601931CAB220000935946BB
:1038900033002800FEF7FAFD0B9B04000D93FFF7A1
:1038A00067FB07220D9B07339343013294469C44E8
:1038B00062460D920CCBD90F0B911100194300D128
:1038C0009BE0D917139112915140109113995940CF
:1038D000119110981199129A139B801A9941109086
:1038E000119114AA944642460023159252469946D5
:1038F000169232001F336344A8464E46BA461494CB
:103900001F00109C119D914601E0202E10D0200038
:1039100029000A220023FEF77BF9013630322B0002
:10392000BA550D0022000400002BEED1092AECD874
:10393000159B10941195454698464B46169AB146EC
:1039400057461E009246149C0F9B069343460593D0
:10395000534604930A2303930B9B02934B461CE7A5
:10396000002885D159E70D9B1B68DA0F1100002B49
:1039700000D1A6E0DA179818504014AA91461F23E8
:1039800042464B44A8460D94169704006546B1463E
:103990001F001491159201E0202D0FD020000A2164
:1039A000FEF7F8F801357E193031317020000A2118
:1039B000FEF7F0F826000400092EEDD8159BAC4662
:1039C00045469846149B4E4619000D9C169F0F9B2A
:1039D0000291069343460593534604930A230393A7
:1039E000634650E713001B066ED50D9B00229B5EBD
:1039F000D9175A184A4092B209E70023994600287D
:103A0000A2D100220023109211936AE70D9B1B683C
:103A10009946002B03D110339843002938D16123F4
:103A2000820600D54123DBB20A3B0D934346169331
:103A3000534614A91F228C4617932B0062444D460F
:103A4000B246159418978046170099460B9C0F9E16
:103A500008E03033DBB201343B55B5420ED3202CA5
:103A60000CD0050031002800FEF794F8CBB20929EC
:103A7000EFD90D9A94466344DBB2ECE7169B4046BF
:103A80009846179B56464D469A460B94189F159C90
:103A900043460593534604930F9B069003930023DC
:103AA00002930B9B0BE50B9980230A00DB001A4065
:103AB00010000A00194200D08BE610239A430F929F
:103AC0008BE6002883D158E70D9B1B68D9175A183D
:103AD0004A409CE60D9B1B680993DCE4030001331C
:103AE0000F93A5E50B926DE400B585B0039101211C
:103AF00002900093034813004A4202A9FFF710FA0C
:103B000005B000BDED26001010B5094A0300146889
:103B100084B0002C08D0012200910648524203A92B
:103B2000A047012004B010BD00F08CF90020F9E797
:103B3000BC1A0020DD2600100021002010B5FDF782
:103B4000ABFEC0467047C046094A03001068002813
:103B500005D00849C3188B4207D813607047064840
:103B60000449C31810608B42F7D901204042F5E7A1
:103B7000B81A002000000420F81E022010B5FFF73C
:103B8000DBFFC04670B5FDF7B3FE074D074EB542EB
:103B900009D20024013E761BB60808CD98472300C1
:103BA0000134B342F9D170BD20990010289900105A
:103BB000030010B5080011001B68984710BDC046EF
:103BC000F0B5C64600B5437D07000D001600002B7A
:103BD00038D0002A2EDD00216A1E90466A5C037DE3
:103BE0004C1C00200A2A0CD0A64216D043461B5D6E
:103BF00021000D3B5A4253416A5CDBB24C1C0A2A3D
:103C0000F2D1002BF0D1884217DB022110483B682B
:103C10009847A64207D02000E8E7864203DD311A24
:103C20003B6828189847AD19013D2B780D3B5A4247
:103C300053413B7580BCB846F0BD091A3B68281853
:103C40009847E2E70368110028009847F2E7C0466A
:103C500030A00010F8B50B680D005A1CCB180A6094
:103C60001871802A00D0F8BD0E4B1C68002C15D0AE
:103C70000D4E0F1D02E02469002C0FD02368002B8D
:103C8000F9D03368002B01D0A342F4D120003900D1
:103C90002A68FFF795FF2469002CEFD100232B60E1
:103CA000E1E7C046B01A0020B41A0020F0B5DE46A5
:103CB00057464E464546E0B585B017001C00060045
:103CC0000D00FDF74FFC0023314A12184B418021B3
:103CD00009068B4202D301222E4B52422E49080084
:103CE0008A4605F0EDFD01906B1C03D1300005F014
:103CF00049FD0500002C26D0284B9846284B1C680F
:103D0000002C15D0002F21D1264F02E02469002C71
:103D10000ED02368002BF9D03B68002B01D09C42C9
:103D2000F4D120002A003100C0472469002CF0D1D2
:103D3000019B002B28D1280005B0F0BCBB46B24641
:103D4000A946A046F0BD184B9846D7E7154B9946B3
:103D500002ABDF1D0A239B4602E02469002CE7D05A
:103D60002368002BF9D04B461B68002B01D0A342DF
:103D7000F3D12A0031002000C0475B460122390000
:103D800020003B70C047E8E7504605F079FDD2E7D8
:103D900040420F00FFFFFF7F100C0020C13B0010CE
:103DA000B01A0020B41A0020B13B0010F0B5CE4686
:103DB000474680B583B06B460600DD1D2870FDF7D1
:103DC000D1FB00231A4A12184B41802109068B426D
:103DD00002D30122174B524217490800884605F0CA
:103DE0006FFD164B81461C68002C14D0144F02E066
:103DF0002469002C0FD02368002BF9D03B68002BDE
:103E000001D09C42F4D1200001222900FFF7D8FE06
:103E10002469002CEFD14B46002B05D1300003B0B4
:103E2000C0BCB946B046F0BD404605F029FDF5E7F7
:103E300040420F00FFFFFF7F100C0020B01A00204F
:103E4000B41A002070B5040005F09CFC01230100A9
:103E5000050001222000FFF729FF084B1C68002CF9
:103E600006D06368002B05D098472469002CF8D150
:103E7000280070BD2469002CF3D1F9E7B01A0020A6
:103E8000F0B5CE46474680B5A3B004000D00FDF75F
:103E900069FB0023294A12184B41802109068B42F5
:103EA00002D30122264B5242264F380005F008FD6E
:103EB00000230600019322002B00234801A9FFF7ED
:103EC00013FE019B8046002B14D1204B1C68002C54
:103ED00006D06368002B0BD098472469002CF8D1DA
:103EE000002E25D1404623B0C0BCB946B046F0BD37
:103EF0002469ECE7154B1D689946002D1CD0144C25
:103F000002E02D69002D0FD02B68002BF9D023681B
:103F1000002B01D0AB42F4D12800019A02A9FFF78F
:103F20004FFE2D69002DEFD14B4601951C68CEE761
:103F3000380005F0A5FCD5E70195D1E740420F0018
:103F4000FFFFFF7F100C0020553C0010B01A00202E
:103F5000B41A00200FB400B583B004A901C90191BF
:103F6000FFF78EFF03B008BC04B0184710B5024835
:103F700000F00CF810BDC046701D002010B50822DE
:103F80000149FEF725FA10BD701D002010B588B05C
:103F900004000D2200216846FEF714FA0D220021CC
:103FA00004A8FEF70FFA6A464B236846137004A96B
:103FB00000230D2205F03CFC152108222000694455
:103FC000FEF706FA08B010BD0022014B5A60704798
:103FD0005C10002083680830002B04D107E0180033
:103FE0001B68002B03D09942F9D1002003E0002385
:103FF000016001200B6070478368002B08D08B4262
:1040000002D107E0994206D018001B68002BF9D1B5
:104010000020704708300B6803600120F9E7C046B4
:1040200043680430002B04D107E018001B68002B04
:1040300003D09942F9D1002003E000230160012060
:104040000B6070474368002B08D08B4202D107E019
:10405000994206D018001B68002BF9D10020704748
:1040600004300B6803600120F9E7C046F0B55746FD
:10407000DE464646C0B53E4B82B05C681B68009386
:10408000019483688246002B2CD0082353449B461E
:10409000FDF768FA53469B6804000D005F46002B4D
:1040A00020D000221E0094469846B268F368200093
:1040B0002900801A9941002902DB14001D00BC462A
:1040C00037003668002EF0D162464346002A48D0B9
:1040D000116850460B6813604B68984753469B68BD
:1040E000002BD5D153465C68002C29D000255646BC
:1040F000237A002B31D02100636825723000984765
:104100002468002CF4D1B168B246002918D0009C74
:10411000019D0E0003E004000D00002E0ED03300C0
:1041200022009868D9682B00121A8B413668002B40
:10413000F1DCF2D1002AEED1002EF0D100940195ED
:10414000009B019C5246180021001361546102B08B
:10415000E0BCBB46B246A846F0BD2468002CC7D1DF
:10416000D1E7190053465C68002CBFD1CFE7C046A9
:10417000D89D0010F0B5C646804600B5FDF7F2F9AF
:1041800043469B6806000F00002B03D10EE01B681E
:10419000002B0BD09C68DD6831003A00091BAA4156
:1041A000002AF4DB012080BCB846F0BD43465B68C2
:1041B000002B03D106E01B68002BF4D0187A0028EE
:1041C000F9D0F0E70020EEE7F0B5C646431E00B593
:1041D0000A3314D8072304001A000834224023426B
:1041E0006CD01300093BA34209D31030841A00F0AD
:1041F000DBFC374A27001568002D28D10EE000F0BF
:10420000D3FC334A1368002B06D0002500F0D4FC01
:10421000280080BCB846F0BD0027002407202D4DA3
:104220002B002900284245D100202B4E70603160C0
:104230002A4EB44607266544B5431560284AEB1A52
:104240001360284A6860286013604B600D60002F7F
:10425000DBDD244F3E68A642D7D31F48036804E045
:104260001A68002A04D0180013005968A142F7D335
:10427000AB42CAD01D001A680835904602600A1B7E
:10428000102A05D919194A6042460A6001602100C6
:10429000134A761A10683E60864200D21660802269
:1042A00012060A435A6000221A600F4A136801334B
:1042B0001360ABE7EB1D83431900B5E700F074FC16
:1042C000034A27001568002DA8D0002CC1DA9CE70E
:1042D000DC1A0020801E0020C81E0220F8FF01000A
:1042E000A01E02209C1E0220AC1E02208022044B35
:1042F00052051A60BFF34F8FBFF36F8F7047C046F0
:1043000004ED00E072B6044A136801331360BFF392
:104310004F8FBFF36F8F7047841E0220094A1368C6
:10432000013B1360002B0CD107490A68002A07D013
:104330000B6006490968BFF35F8F136081F3108833
:1043400062B67047841E0220641D0020801E022079
:10435000EFF3108072B6704780F310887047C04644
:10436000D02310B51B061868074B1B78834200D07A
:1043700010BDEFF30583002B02D05B00C018F7E7F8
:1043800000F0F6FDF4E7C046A006002000B5144A90
:1043900003681078D0221206126883B0904208D0C9
:1043A000BFF35F8F00221A6081F3108820BF03B033
:1043B00000BD0C4A13600C4A11600C4A022194465D
:1043C00063449B10FF319940094B01221868012377
:1043D0005B420093090A002300F056F9E7E7C04664
:1043E000A0060020641D0020801E022000FFFF2F79
:1043F000981E02200A002B4903688C46022130B522
:1044000063449B10FF319940274B83B01C78D02325
:104410001B061B68090A9C421FD040BF234D03683E
:104420002C68A34234D02368002BFCD0BFF35F8FED
:104430001F4C23680B4323602B68BFF35F8F002161
:1044400019600368D020002100064165BFF35F8F2B
:10445000196082F3108803B030BD40BF0368BFF31A
:104460005F8F0020186082F31088EFF30583DBB2C2
:10447000002B12D00F4B019001AA186800F0AAF986
:10448000019B002BE7D080220B4B52051A60E2E71C
:10449000074C206808432060D4E7064B186800F0FA
:1044A0004FF9D8E700FFFF2FA0060020D01A002008
:1044B000881E0220981E022004ED00E0F0B5CE46D2
:1044C000474680B51D00344B14001A78D0231B06D4
:1044D0001B688146884683B09A420FD00368BFF3B9
:1044E0005F8F00221A6081F3108820002900FCF7FA
:1044F0007FFF03B0C0BCB946B046F0BDFDF732F84F
:1045000022002B000127121A8B41244E7F42B6183D
:104510005F41002F20DC1BD04B461B68BFF35F8F31
:1045200000221A6088F310881D4B5A6A954205D8FC
:104530009B6A0120A342DCD29542DAD18022194B3A
:1045400052051A60BFF34F8FBFF36F8F0020D0E783
:10455000FA239B009E42DFD3FA2200233000390069
:104560009200FDF73DFB031ED6D04A464046126836
:104570000D490A600D4908600D498C4602216244CC
:104580009210FF3191400B4A090A106800930122F2
:10459000002300F079F8C7E7A006002018FCFFFF11
:1045A0000040054004ED00E0641D0020801E022054
:1045B00000FFFF2F981E022010B5FBF7DDFF054A14
:1045C000054B944660448000186000F051F8034B9E
:1045D000186010BD40000034D01A0020981E022040
:1045E000F8B5DE4657464E464546E0B505000F0095
:1045F000060000F0D9FA29682C6939430C36296085
:10460000A6422CD0002398468023DB049B468023BF
:104610005B049A4680239B0499460FE06746002F6F
:104620000AD057463A4202D042461A4390464B4679
:10463000194300F053FC2968A6420ED020000F0059
:104640000268646813021B0A1F40BC465F463A4278
:10465000E4D06345E5D0A642F0D1434699432960B2
:1046600000F0AAFAF0BCBB46B246A946A046F8BD87
:1046700010B51C20FFF7A8FD041E03D0002308C0BE
:1046800000F0B4F8200010BDF0B5C646060000B535
:104690000D0090461F0000F087FA3468002F13D1F8
:1046A00025420BD04346002B0BD02300AB43336095
:1046B00000F082FA200080BCB846F0BD069B002BBB
:1046C00021D100F079FAF5E72B0023409D42E9D093
:1046D000069B002BF5D0434680215A1E9341C90406
:1046E0001B061943069A2943301D00F02FFB00F0EA
:1046F00063FA00281CD000F073FC0400830107D586
:104700002402240AD6E741464B1E99410906E9E7EF
:10471000FFF7F8FD3468002F0DD12C4205D0434639
:10472000002B02D02300AB433360FFF7F7FDE7E730
:10473000FFF7DCFDDFE723002B409D42F5D1EEE7DC
:10474000F8B5DE4657464E464546E0B505000F0033
:10475000060000F029FA29682C6939430C362960D3
:10476000A6422CD0002398468023DB049B4680235E
:104770005B049A4680239B0499460FE06746002F0E
:104780000AD057463A4202D042461A4390464B4618
:10479000194300F0A3FB2968A6420ED020000F00A9
:1047A0000268646813021B0A1F40BC465F463A4217
:1047B000E4D06345E5D0A642F0D143469943296051
:1047C00000F0FAF92868F0BCBB46B246A946A046FC
:1047D000F8BDC04610B5044C13000A0001002000CB
:1047E00000F00AFC10BDC046E1450010030008338C
:1047F00001224360C3600361002352428260036070
:104800007047C046030030B50D6808336A1C0DD0F0
:104810001C005B681A68AA42FAD94B609960036869
:104820008C60013361600861036030BD04696368B6
:10483000F3E7C0460369416882688A60516059683D
:10484000814205D000220261186801381860704763
:104850005A60F7E7F0B5C64600B5846C82B0A26B2B
:10486000E36B002501909A4204D3280002B080BC7B
:10487000B846F0BD4523226CE65CA76B76B2002AF1
:104880001CD0606801A9FDF7A3FD6368226C9B182A
:10489000A2686360934201D32368636000250137F7
:1048A000A763731C15D1636A002BDED0200024306F
:1048B00000F0AEFA0028D8D00125D6E72368984644
:1048C000002BEBD1A06800F059FB43460500A36024
:1048D000E5E700F035FA8642C7D24523013676B2C5
:1048E000E654C2E7F8B54E46DE4657464546040054
:1048F000E0B591461D000F00FFF72AFDA26BE36BA8
:1049000006009A422DD300239846022D09D030008C
:10491000FFF722FD4046F0BCBB46B246A946A04682
:10492000F8BD4533E35C226C5BB29846A36B9B46B3
:10493000A36B9A46002A3BD15746236801379A4613
:10494000002B63D04346A763013327D1A36C002B10
:1049500042D0022D4AD15B46002B47D00123984616
:10496000D5E74523E35C226C5BB29846A36B9B467C
:10497000A36B9A46002ADFD0002D19D13900574683
:104980006068FDF725FD6368226C01379B18A268FB
:1049900063609342D6D323686360D3E700F0D0F915
:1049A0008045DBD24346452201335BB2A354D5E7B1
:1049B0003900E068FDF70CFD226CE36851429B1A58
:1049C0002268E360934202D2A3685B18E360574613
:1049D000022D17D00137B5E7636A002BBED0200047
:1049E000243000F015FA002805D1B7E72000FFF7C2
:1049F00031FF0028B2D04B46002BAFD001234A46EE
:104A00001360ABE7002F9DD101379BE7A06800F052
:104A1000B5FA5346A36095E7F0B5DE4657464E46D5
:104A20004546584BE0B51A6883B0013294461A6087
:104A3000002A5ED0544B1A6894456ED3534A904670
:104A400012681268002A00D195E000220092504AB4
:104A5000504D9346002291464F4A0193924636E0CC
:104A6000494659611168013911609A6A002A0DD0CE
:104A7000D969186A566888604160190018318E42F9
:104A80006FD0494699621168013911605246D96A5E
:104A90001268914201D9524611608A005218920060
:104AA000AE18706887689860DF607C6084605E61C3
:104AB000AB580133AB505B461B68DB6A994201D9A6
:104AC0000123009343461B681B68002B4ED04346CE
:104AD0001B68DB68DB685A68944544D35A69986858
:104AE000D9681C1D816048605068A042B8D15160EF
:104AF000B6E7264B294A19681068186011602849E2
:104B00000A6801320A601A681268002A23D11E4B13
:104B1000013A1A601A68944590D2002300931C4B06
:104B20001C4D9B465B461B68DA6A93009B189B00F2
:104B3000EB58012B01D9012300931A4B1B68002B62
:104B400001D001230093009803B0F0BCBB46B246ED
:104B5000A946A046F0BD1B68DB681A680A4B1A60BC
:104B600069E750608DE7019B1A60DBE7019B01223A
:104B700052421A60D6E700220092054A054D93463C
:104B8000F5E7C046E41E0220A41E0220D81A002029
:104B9000D41A0020E41A0020941E0220E01A0020FB
:104BA000A81E0220EC1E0220024A13680133136083
:104BB0007047C046901E0220F0B5DE4657464E466E
:104BC0004546E0B583B0FFF79DFB534C2368013B9E
:104BD00023602368002B00D081E0504B1B68002B22
:104BE0007DD04F4B9C461B68002B00D190E04D4B75
:104BF0004D4D98464D4B019499464D4B9A46002396
:104C00009B466346DB68DB68D869196A9A6A8160EB
:104C10004860180056681830864200D172E0594644
:104C200099621168013911605A699868D9685668A3
:104C300081604860181D864262D011680139116098
:104C40004146DA6A09688A4201D941460A60910000
:104C500089188C002E1971688F689960DF60786000
:104C600088605E612B5901332B514B461B68DB6A10
:104C70009A423FD9534601221A6063461B68002BB3
:104C8000BFD12C4B019C1A681268002A3CD01B68CB
:104C9000DB681A68284B1A60284E3568002D14D03E
:104CA000012708E0FFF7B8FE002801D053461F6037
:104CB000013D002D08D02368002BF3D03368013D5F
:104CC00001333360002DF6D1356053461B68002B4D
:104CD00005D0164B01241B68FFF708FB00E00024F9
:104CE000FFF71CFB200003B0F0BCBB46B246A94650
:104CF000A046F0BD63461B68002B00D081E7C0E7EB
:104D000051609AE751608AE70B4B013A1A60C3E79A
:104D1000074B9A46C0E7C046901E02208C1E022018
:104D2000B41E0220941E0220E41A0020D41A00208F
:104D3000EC1E0220D81A0020A41E0220B01E022061
:104D4000014B18687047C0468C1E02208023F0B5C6
:104D5000C646294C15001B0622680B4300B593611B
:104D6000226843689968D361226811622268183208
:104D70004A602268002118329A60236898620368AA
:104D8000013303601D4B1E681D4B1F681D4B1B68C4
:104D9000226898466D232068D1540430FFF74AFDFD
:104DA0006B1C15D023682168AD195D600431AE42DB
:104DB00005D94046FFF726FD80BCB846F0BD380057
:104DC000FFF720FD104B1A689542F5D21D60F3E7FE
:104DD0000E4B21685A688A6090682168C860216813
:104DE00004314160216804319160226853611A687E
:104DF00001321A60E0E7C046D41A0020E41E022007
:104E0000D81A0020E01A0020A41E0220D01E022082
:104E1000C368F0B5DB68D869196A9A6A816048602E
:104E2000180054681830844241D0002199621168FA
:104E300001391160234AD96A1268002A29D15A69B6
:104E40009C68D8681D1DA06044605468AC4230D096
:104E50001068013810601C4A1068884225D38A0007
:104E60001A485218920086187468A7689C60DF6020
:104E70007D60A5605E61835801338350144B002030
:104E80001B68DB6A8B4203D20122124B01301A608D
:104E9000F0BD114A5468A568DC611D626860A060BD
:104EA0009A62136801331360E8E71160D7E7516035
:104EB000BBE75060106801381060034A10688842F0
:104EC000CDD2F2E7901E0220941E0220E41A0020A8
:104ED000D41A0020EC1E0220B41E022080231B06E0
:104EE000F0B5026944680B4381680360C368A16040
:104EF0004C60546884422ED000210161116898688A
:104F0000013911605A69D9681D1D81604860506877
:104F1000A84222D0116801391160114AD96A10687B
:104F2000814200D911608A000E48521892008618FA
:104F30007468A7689C60DF607D60A5605E618358CF
:104F400001338350084B1B68DB6A994202D9012266
:104F5000064B1A60F0BD5160CEE75160DAE7C046FB
:104F6000941E0220E41A0020D41A0020EC1E022015
:104F7000014B18687047C046D41A002070B5041E53
:104F800008D0036DC16AC26C013B0365914201D038
:104F9000002B01D0002070BD051D2800FFF74AFC42
:104FA0002023E26C9B1AA3610B4BE26219688A42D0
:104FB00000D91A60930009499B189B00C8184268E1
:104FC0009668A260E66075609560CA5860610132BB
:104FD0000120CA50DFE7C046941E0220E41A0020D8
:104FE000044B1A68196890691A682023C96A5B1A09
:104FF00093617047D41A002010B514001A000223E0
:1050000084B05B420093054B019002911868694699
:1050100000230394FFF766FC04B010BDE81E0220D5
:10502000014B18607047C0466C10002010B5034B50
:105030000A000100180002F0ADFF10BDD4110020DD
:10504000014B18687047C0466C10002010B582B044
:10505000FFF7F6FF002807D003F070FA03000020E6
:10506000002B10D002B010BD684603F053FE0F4C69
:105070006946200003F054FE002813D02000FFF7FB
:10508000CFFF2000E8E7FFF7DBFF040003F072FA30
:10509000064B9C4206D1236820005B6B984700209A
:1050A000FFF7BEFF01204042DCE7C046180C00209D
:1050B00010B50520FCF75EFB030C64200349584340
:1050C000FCF768FD0338FDD210BDC0469A3B0000D6
:1050D000184B70B5C4580500002C14D02168002965
:1050E00006D06368A268144803F022F90023236005
:1050F0000C202056002810DA0D202056002803DA54
:1051000000220C4BEA5070BD03F04EF90D202056E2
:1051100003F02EF9FF236373F2E703F045F90C2047
:10512000205603F025F9FF230D2023732056002875
:10513000E6DBE9E74C08000034A00010F0B5C646F5
:105140003F4C404B00B5C4500023062122000126ED
:1051500084B02360013BA3810191123105000091CD
:1051600039482100231D0832029603F0D3F80028A5
:1051700060D0636835495F1D3F03DB011F43344B3B
:105180000A681F4030239343324A206813600B683B
:105190003100994311608022002352040092019350
:1051A00002F09EFFA16820684B005B18DB00C3186B
:1051B000B8461A008027C832BF021760C027BF0256
:1051C0009760474604321760234ADC331A601D2279
:1051D0000123009602F090FF204B21689C46614419
:1051E000090D06311820C9B2FBF760F80122002131
:1051F0001820FBF775F801211820FBF785F8A16846
:1052000023684A005218D2009B18154AD8331A60F6
:10521000002003F0B7F82073002003F0B3F8237BDD
:1052200040B260731843000604D4002004B080BC70
:10523000B846F0BD2800FFF74BFF06204042F5E7D7
:10524000881100204C08000034A0001078C00140F4
:10525000FFFFFF9F78D0014018771C240000E0AFCB
:1052600001E00000F0B54E464546DE465746E0B543
:1052700089461600984689B0002900D124E1964B52
:10528000C458964B21689C466144090D063118208C
:10529000C9B2FBF70BF8914B21689C466144090D9C
:1052A00006311D20C9B2FBF701F8012200211D20A3
:1052B000FBF716F8D02380221B0692049A6143461E
:1052C000002B00D122E14B46002B00D1FAE0012552
:1052D0002A00A16820688A400368934303606368DA
:1052E0009C464B005B18DB00C718CC3703933B6828
:1052F0009A4663465A1D7A4B12039B4604925346C4
:105300005A461340049A1A436346DB011A433A6033
:10531000744A039B94468022C318634412061A60A1
:105320001A608022002352040092019302F082FE50
:105330002900A36827681A1D914094468022920193
:10534000BA181160190028000831884099001060CF
:10535000F2007918013A0A615A00D218D200624864
:10536000BA18D83210601298801BC000013808614A
:105370001F205E491160616801401160A0210C226C
:10538000C9058A46A2565046954059494550910153
:10539000080080258346079156496D0459440868E2
:1053A0002842FCD10D20012520565149854003900B
:1053B00050464550A021C9058A464E4903988B4660
:1053C00085018021AA445D449B462B0049041D6849
:1053D0000D42FCD15B46414903907D182D0DED0037
:1053E0005919C9038B4658464349D2020A40024321
:1053F000424806950100A0201143C005624683463D
:105400004846079D92005D44049228600498B9467E
:105410008346D944484605912900B2086860AA60CD
:10542000059DCD600399069DC80233496544084037
:105430001299ED03890805438A1A314859462843D1
:105440005546103179182960414689196960AA606A
:1054500001229A401300E86039680B433B600C223C
:10546000284B80219C46A25649049201624413684D
:105470000B42FCD10D22234B80219C46A2564904AD
:105480009201624413680B42FCD100213200404675
:10549000FCF798FFA16823684A005218D2009B18B5
:1054A000194AD8331A60D02380221B0692045A610D
:1054B000FFF7FEFD002009B0F0BCBB46B246A9468E
:1054C000A046F0BDC14602E74346002B00D0D6E619
:1054D00005204042EFE7C0464C0800000000E0AF66
:1054E0007F00FEFFD0100000206000004060000040
:1054F000440400000C000050FD7F00FF1900400034
:10550000290040001000005003A000004B46002B73
:10551000C0D001273A00A16820688A4003689343FD
:10552000036063689C464B005B18DB00C518CC35F4
:1055300003932B689A4663465A1C484B12039B46BA
:10554000049253465A461340049A1A436346DB01B9
:105550001A432A60424A039B94468022C31863443C
:1055600012061A601A6080220023520400920193EE
:1055700002F060FD3A00A0682168031D9A409A4637
:1055800080239B01CB181A6002003D000832954031
:1055900082001D60F3008A18013B136143001B1851
:1055A000DB00304DCB18D8331D60454615611F25F3
:1055B0002D4A1A6062682A401A600C23E356A02222
:1055C0009F409C46294BD205D75063469B019B4682
:1055D00017008025264A5F445A446D0413682B4205
:1055E000FCD16246D2029446224A234B9046624640
:1055F0004546CB181B0DDB001B182A40DB03134369
:105600001E4AB60813434A463A60524695004D1961
:105610007D60BE60FB60012383400D68184A2B4308
:105620000B6080215A44490413680B42FCD10122CB
:10563000A368216818339A408A608B681A42FCD0AC
:105640000122A16820688A40036893430360002315
:1056500018220093013302F04FFD1BE77F00FEFF8D
:10566000D0100000206000004060000044040000F2
:105670000C000050FD7F00FF0000E0AF190040006B
:105680001000005010B51720FAF79CFED02480239C
:1056900024061B040022012163621720FAF720FE72
:1056A0001820FAF78FFE80235B0463621920A36140
:1056B000FAF788FE80239B046362636110BDC046D5
:1056C00070B5D024802524062D04A561142002F095
:1056D000D1FF6561FA2002F0CDFF1820FAF772FEC3
:1056E00080235B04A36270BD002300B585B00393E3
:1056F0000A4BD2021A40082309071143084A0093B3
:105700000A4302AB52BA002102920422FFF7AAFD1B
:10571000002801D1039840BA05B000BD00F8FF0F82
:105720000400004010B5114BD2021A400B071A4377
:105730000F4B88B013434C1E0293634263411B011D
:10574000083300930422002102ABFFF78BFD0028F1
:105750000AD1631E9C4103236142994308226B4690
:10576000053189009B18585808B010BD00F8FF0F8C
:105770000400004010B5114BD2021A400B071A4327
:105780000F4B88B013434C1E0293634263411B01CD
:10579000083300930422002102ABFFF763FD0028C9
:1057A0000AD1631E9C4103236142994308226B4640
:1057B000053189009B18585808B010BD00F8FF0F3C
:1057C0000200004010B5114BD2021A400B071A43D9
:1057D0000F4B88B013434C1E0293634263411B017D
:1057E000083300930422002102ABFFF73BFD0028A1
:1057F0000AD1631E9C4103236142994308226B46F0
:10580000053189009B18585808B010BD00F8FF0FEB
:1058100001000040F0B55BBADE4657464E464546AD
:10582000E0B5734CD202224009071143714A85B09A
:105830000A430393704B02A9C458704B8A4652BA6C
:105840009C46216818206144090D0631C9B20292B4
:10585000FAF72CFD694B21689C466144090D06311D
:105860001D20C9B2FAF722FD012200211D20FAF7FE
:1058700037FDD023802201271B0692049A613A004B
:10588000A16820688A4003686568934303604B0001
:105890005B18DB00C618CC3632689C4690466A1C02
:1058A0001303574A9B46914642464B461A40130003
:1058B0005A46ED011A432A433260524A63469446DF
:1058C0008022C318634412061A601A6080220023E3
:1058D00052040092019302F0ADFB3A00A0682168E7
:1058E000031D9A40994680239B01CB181A60020041
:1058F0003D00083295401D603F2382008A181361E5
:1059000043001B18DB00404DCB18D8331D60002529
:1059100015613E4A1F351A60626880262A401A6067
:105920000C23E356A0229F409C46394BD205D7500A
:1059300063469A01A023DB05D718364B7604D518A9
:105940002B683342FCD16546ED02AC46324D2B4B01
:10595000A84665464646CB181B0DDB001B18354094
:10596000DB032B432D4D2B4355463D604D46AE008A
:1059700002258E197E60BD60FB60012383400D68A7
:105980002B430B60264B80219C46490462441368DC
:105990000B42FCD10122A368216818339A408A6027
:1059A0008B681342FCD00122A16820688A400368FA
:1059B00093430360002318220093013302F09CFB01
:1059C000A16823684A005218D2009B18154AD833A0
:1059D0001A60D02380221B0692045A61FFF768FBED
:1059E000002005B0F0BCBB46B246A946A046F0BDBB
:1059F00000F8FF0F040000C04C0800000000E0AFFA
:105A00007F00FEFFD010000020600000406000001A
:105A1000440400000C000050FD7F00FF190040000E
:105A20001000005003A00000F0B5DE4657464E4679
:105A30004546E0B585B002ACA246724CD202224087
:105A400009070A43704901270A43029252465360EC
:105A50006E4BC4586E4B21689C466144090D06315B
:105A60001820C9B2FAF722FC694B21689C466144B0
:105A7000090D06311D20C9B2FAF718FC01220021D8
:105A80001D20FAF72DFCD02380221B0692049A6178
:105A90003A00A16820688A40036865689343036000
:105AA0004B005B18DB00C618CC3632689C4690462B
:105AB0006A1C1303574A9B46914642464B461A407E
:105AC00013005A46ED011A432A433260524A634694
:105AD00094468022C318634412061A601A6080221A
